{
	"contracts/customer_new.sol": {
		"myContract": {
			"abi": [
				{
					"inputs": [],
					"name": "c1",
					"outputs": [
						{
							"internalType": "address",
							"name": "adr",
							"type": "address"
						},
						{
							"internalType": "string",
							"name": "name",
							"type": "string"
						}
					],
					"stateMutability": "view",
					"type": "function"
				},
				{
					"inputs": [
						{
							"internalType": "address",
							"name": "a",
							"type": "address"
						},
						{
							"internalType": "string",
							"name": "n",
							"type": "string"
						}
					],
					"name": "init",
					"outputs": [],
					"stateMutability": "nonpayable",
					"type": "function"
				}
			],
			"devdoc": {
				"kind": "dev",
				"methods": {},
				"version": 1
			},
			"evm": {
				"assembly": "    /* \"contracts/customer_new.sol\":61:288  contract myContract{... */\n  mstore(0x40, 0x80)\n  callvalue\n  dup1\n  iszero\n  tag_1\n  jumpi\n  0x00\n  dup1\n  revert\ntag_1:\n  pop\n  dataSize(sub_0)\n  dup1\n  dataOffset(sub_0)\n  0x00\n  codecopy\n  0x00\n  return\nstop\n\nsub_0: assembly {\n        /* \"contracts/customer_new.sol\":61:288  contract myContract{... */\n      mstore(0x40, 0x80)\n      callvalue\n      dup1\n      iszero\n      tag_1\n      jumpi\n      0x00\n      dup1\n      revert\n    tag_1:\n      pop\n      jumpi(tag_2, lt(calldatasize, 0x04))\n      shr(0xe0, calldataload(0x00))\n      dup1\n      0x5f57697c\n      eq\n      tag_3\n      jumpi\n      dup1\n      0xf321b305\n      eq\n      tag_4\n      jumpi\n    tag_2:\n      0x00\n      dup1\n      revert\n        /* \"contracts/customer_new.sol\":160:178  customer public c1 */\n    tag_3:\n      tag_5\n      tag_6\n      jump\t// in\n    tag_5:\n      mload(0x40)\n      tag_7\n      swap3\n      swap2\n      swap1\n      tag_8\n      jump\t// in\n    tag_7:\n      mload(0x40)\n      dup1\n      swap2\n      sub\n      swap1\n      return\n        /* \"contracts/customer_new.sol\":185:285  function init(address a, string calldata n) public {... */\n    tag_4:\n      tag_9\n      0x04\n      dup1\n      calldatasize\n      sub\n      dup2\n      add\n      swap1\n      tag_10\n      swap2\n      swap1\n      tag_11\n      jump\t// in\n    tag_10:\n      tag_12\n      jump\t// in\n    tag_9:\n      stop\n        /* \"contracts/customer_new.sol\":160:178  customer public c1 */\n    tag_6:\n      0x00\n      dup1\n      0x00\n      add\n      0x00\n      swap1\n      sload\n      swap1\n      0x0100\n      exp\n      swap1\n      div\n      0xffffffffffffffffffffffffffffffffffffffff\n      and\n      swap1\n      dup1\n      0x01\n      add\n      dup1\n      sload\n      tag_13\n      swap1\n      tag_14\n      jump\t// in\n    tag_13:\n      dup1\n      0x1f\n      add\n      0x20\n      dup1\n      swap2\n      div\n      mul\n      0x20\n      add\n      mload(0x40)\n      swap1\n      dup2\n      add\n      0x40\n      mstore\n      dup1\n      swap3\n      swap2\n      swap1\n      dup2\n      dup2\n      mstore\n      0x20\n      add\n      dup3\n      dup1\n      sload\n      tag_15\n      swap1\n      tag_14\n      jump\t// in\n    tag_15:\n      dup1\n      iszero\n      tag_16\n      jumpi\n      dup1\n      0x1f\n      lt\n      tag_17\n      jumpi\n      0x0100\n      dup1\n      dup4\n      sload\n      div\n      mul\n      dup4\n      mstore\n      swap2\n      0x20\n      add\n      swap2\n      jump(tag_16)\n    tag_17:\n      dup3\n      add\n      swap2\n      swap1\n      0x00\n      mstore\n      keccak256(0x00, 0x20)\n      swap1\n    tag_18:\n      dup2\n      sload\n      dup2\n      mstore\n      swap1\n      0x01\n      add\n      swap1\n      0x20\n      add\n      dup1\n      dup4\n      gt\n      tag_18\n      jumpi\n      dup3\n      swap1\n      sub\n      0x1f\n      and\n      dup3\n      add\n      swap2\n    tag_16:\n      pop\n      pop\n      pop\n      pop\n      pop\n      swap1\n      pop\n      dup3\n      jump\t// out\n        /* \"contracts/customer_new.sol\":185:285  function init(address a, string calldata n) public {... */\n    tag_12:\n        /* \"contracts/customer_new.sol\":254:255  a */\n      dup3\n        /* \"contracts/customer_new.sol\":247:249  c1 */\n      0x00\n        /* \"contracts/customer_new.sol\":247:253  c1.adr */\n      dup1\n      add\n      0x00\n        /* \"contracts/customer_new.sol\":247:255  c1.adr=a */\n      0x0100\n      exp\n      dup2\n      sload\n      dup2\n      0xffffffffffffffffffffffffffffffffffffffff\n      mul\n      not\n      and\n      swap1\n      dup4\n      0xffffffffffffffffffffffffffffffffffffffff\n      and\n      mul\n      or\n      swap1\n      sstore\n      pop\n        /* \"contracts/customer_new.sol\":276:277  n */\n      dup2\n      dup2\n        /* \"contracts/customer_new.sol\":266:268  c1 */\n      0x00\n        /* \"contracts/customer_new.sol\":266:273  c1.name */\n      0x01\n      add\n        /* \"contracts/customer_new.sol\":266:277  c1.name = n */\n      swap2\n      dup3\n      tag_20\n      swap3\n      swap2\n      swap1\n      tag_21\n      jump\t// in\n    tag_20:\n      pop\n        /* \"contracts/customer_new.sol\":185:285  function init(address a, string calldata n) public {... */\n      pop\n      pop\n      pop\n      jump\t// out\n        /* \"#utility.yul\":7:133   */\n    tag_22:\n        /* \"#utility.yul\":44:51   */\n      0x00\n        /* \"#utility.yul\":84:126   */\n      0xffffffffffffffffffffffffffffffffffffffff\n        /* \"#utility.yul\":77:82   */\n      dup3\n        /* \"#utility.yul\":73:127   */\n      and\n        /* \"#utility.yul\":62:127   */\n      swap1\n      pop\n        /* \"#utility.yul\":7:133   */\n      swap2\n      swap1\n      pop\n      jump\t// out\n        /* \"#utility.yul\":139:235   */\n    tag_23:\n        /* \"#utility.yul\":176:183   */\n      0x00\n        /* \"#utility.yul\":205:229   */\n      tag_61\n        /* \"#utility.yul\":223:228   */\n      dup3\n        /* \"#utility.yul\":205:229   */\n      tag_22\n      jump\t// in\n    tag_61:\n        /* \"#utility.yul\":194:229   */\n      swap1\n      pop\n        /* \"#utility.yul\":139:235   */\n      swap2\n      swap1\n      pop\n      jump\t// out\n        /* \"#utility.yul\":241:359   */\n    tag_24:\n        /* \"#utility.yul\":328:352   */\n      tag_63\n        /* \"#utility.yul\":346:351   */\n      dup2\n        /* \"#utility.yul\":328:352   */\n      tag_23\n      jump\t// in\n    tag_63:\n        /* \"#utility.yul\":323:326   */\n      dup3\n        /* \"#utility.yul\":316:353   */\n      mstore\n        /* \"#utility.yul\":241:359   */\n      pop\n      pop\n      jump\t// out\n        /* \"#utility.yul\":365:464   */\n    tag_25:\n        /* \"#utility.yul\":417:423   */\n      0x00\n        /* \"#utility.yul\":451:456   */\n      dup2\n        /* \"#utility.yul\":445:457   */\n      mload\n        /* \"#utility.yul\":435:457   */\n      swap1\n      pop\n        /* \"#utility.yul\":365:464   */\n      swap2\n      swap1\n      pop\n      jump\t// out\n        /* \"#utility.yul\":470:639   */\n    tag_26:\n        /* \"#utility.yul\":554:565   */\n      0x00\n        /* \"#utility.yul\":588:594   */\n      dup3\n        /* \"#utility.yul\":583:586   */\n      dup3\n        /* \"#utility.yul\":576:595   */\n      mstore\n        /* \"#utility.yul\":628:632   */\n      0x20\n        /* \"#utility.yul\":623:626   */\n      dup3\n        /* \"#utility.yul\":619:633   */\n      add\n        /* \"#utility.yul\":604:633   */\n      swap1\n      pop\n        /* \"#utility.yul\":470:639   */\n      swap3\n      swap2\n      pop\n      pop\n      jump\t// out\n        /* \"#utility.yul\":645:784   */\n    tag_27:\n        /* \"#utility.yul\":734:740   */\n      dup3\n        /* \"#utility.yul\":729:732   */\n      dup2\n        /* \"#utility.yul\":724:727   */\n      dup4\n        /* \"#utility.yul\":718:741   */\n      mcopy\n        /* \"#utility.yul\":775:776   */\n      0x00\n        /* \"#utility.yul\":766:772   */\n      dup4\n        /* \"#utility.yul\":761:764   */\n      dup4\n        /* \"#utility.yul\":757:773   */\n      add\n        /* \"#utility.yul\":750:777   */\n      mstore\n        /* \"#utility.yul\":645:784   */\n      pop\n      pop\n      pop\n      jump\t// out\n        /* \"#utility.yul\":790:892   */\n    tag_28:\n        /* \"#utility.yul\":831:837   */\n      0x00\n        /* \"#utility.yul\":882:884   */\n      0x1f\n        /* \"#utility.yul\":878:885   */\n      not\n        /* \"#utility.yul\":873:875   */\n      0x1f\n        /* \"#utility.yul\":866:871   */\n      dup4\n        /* \"#utility.yul\":862:876   */\n      add\n        /* \"#utility.yul\":858:886   */\n      and\n        /* \"#utility.yul\":848:886   */\n      swap1\n      pop\n        /* \"#utility.yul\":790:892   */\n      swap2\n      swap1\n      pop\n      jump\t// out\n        /* \"#utility.yul\":898:1275   */\n    tag_29:\n        /* \"#utility.yul\":986:989   */\n      0x00\n        /* \"#utility.yul\":1014:1053   */\n      tag_69\n        /* \"#utility.yul\":1047:1052   */\n      dup3\n        /* \"#utility.yul\":1014:1053   */\n      tag_25\n      jump\t// in\n    tag_69:\n        /* \"#utility.yul\":1069:1140   */\n      tag_70\n        /* \"#utility.yul\":1133:1139   */\n      dup2\n        /* \"#utility.yul\":1128:1131   */\n      dup6\n        /* \"#utility.yul\":1069:1140   */\n      tag_26\n      jump\t// in\n    tag_70:\n        /* \"#utility.yul\":1062:1140   */\n      swap4\n      pop\n        /* \"#utility.yul\":1149:1214   */\n      tag_71\n        /* \"#utility.yul\":1207:1213   */\n      dup2\n        /* \"#utility.yul\":1202:1205   */\n      dup6\n        /* \"#utility.yul\":1195:1199   */\n      0x20\n        /* \"#utility.yul\":1188:1193   */\n      dup7\n        /* \"#utility.yul\":1184:1200   */\n      add\n        /* \"#utility.yul\":1149:1214   */\n      tag_27\n      jump\t// in\n    tag_71:\n        /* \"#utility.yul\":1239:1268   */\n      tag_72\n        /* \"#utility.yul\":1261:1267   */\n      dup2\n        /* \"#utility.yul\":1239:1268   */\n      tag_28\n      jump\t// in\n    tag_72:\n        /* \"#utility.yul\":1234:1237   */\n      dup5\n        /* \"#utility.yul\":1230:1269   */\n      add\n        /* \"#utility.yul\":1223:1269   */\n      swap2\n      pop\n        /* \"#utility.yul\":990:1275   */\n      pop\n        /* \"#utility.yul\":898:1275   */\n      swap3\n      swap2\n      pop\n      pop\n      jump\t// out\n        /* \"#utility.yul\":1281:1704   */\n    tag_8:\n        /* \"#utility.yul\":1422:1426   */\n      0x00\n        /* \"#utility.yul\":1460:1462   */\n      0x40\n        /* \"#utility.yul\":1449:1458   */\n      dup3\n        /* \"#utility.yul\":1445:1463   */\n      add\n        /* \"#utility.yul\":1437:1463   */\n      swap1\n      pop\n        /* \"#utility.yul\":1473:1544   */\n      tag_74\n        /* \"#utility.yul\":1541:1542   */\n      0x00\n        /* \"#utility.yul\":1530:1539   */\n      dup4\n        /* \"#utility.yul\":1526:1543   */\n      add\n        /* \"#utility.yul\":1517:1523   */\n      dup6\n        /* \"#utility.yul\":1473:1544   */\n      tag_24\n      jump\t// in\n    tag_74:\n        /* \"#utility.yul\":1591:1600   */\n      dup2\n        /* \"#utility.yul\":1585:1589   */\n      dup2\n        /* \"#utility.yul\":1581:1601   */\n      sub\n        /* \"#utility.yul\":1576:1578   */\n      0x20\n        /* \"#utility.yul\":1565:1574   */\n      dup4\n        /* \"#utility.yul\":1561:1579   */\n      add\n        /* \"#utility.yul\":1554:1602   */\n      mstore\n        /* \"#utility.yul\":1619:1697   */\n      tag_75\n        /* \"#utility.yul\":1692:1696   */\n      dup2\n        /* \"#utility.yul\":1683:1689   */\n      dup5\n        /* \"#utility.yul\":1619:1697   */\n      tag_29\n      jump\t// in\n    tag_75:\n        /* \"#utility.yul\":1611:1697   */\n      swap1\n      pop\n        /* \"#utility.yul\":1281:1704   */\n      swap4\n      swap3\n      pop\n      pop\n      pop\n      jump\t// out\n        /* \"#utility.yul\":1791:1908   */\n    tag_31:\n        /* \"#utility.yul\":1900:1901   */\n      0x00\n        /* \"#utility.yul\":1897:1898   */\n      dup1\n        /* \"#utility.yul\":1890:1902   */\n      revert\n        /* \"#utility.yul\":1914:2031   */\n    tag_32:\n        /* \"#utility.yul\":2023:2024   */\n      0x00\n        /* \"#utility.yul\":2020:2021   */\n      dup1\n        /* \"#utility.yul\":2013:2025   */\n      revert\n        /* \"#utility.yul\":2037:2159   */\n    tag_33:\n        /* \"#utility.yul\":2110:2134   */\n      tag_80\n        /* \"#utility.yul\":2128:2133   */\n      dup2\n        /* \"#utility.yul\":2110:2134   */\n      tag_23\n      jump\t// in\n    tag_80:\n        /* \"#utility.yul\":2103:2108   */\n      dup2\n        /* \"#utility.yul\":2100:2135   */\n      eq\n        /* \"#utility.yul\":2090:2153   */\n      tag_81\n      jumpi\n        /* \"#utility.yul\":2149:2150   */\n      0x00\n        /* \"#utility.yul\":2146:2147   */\n      dup1\n        /* \"#utility.yul\":2139:2151   */\n      revert\n        /* \"#utility.yul\":2090:2153   */\n    tag_81:\n        /* \"#utility.yul\":2037:2159   */\n      pop\n      jump\t// out\n        /* \"#utility.yul\":2165:2304   */\n    tag_34:\n        /* \"#utility.yul\":2211:2216   */\n      0x00\n        /* \"#utility.yul\":2249:2255   */\n      dup2\n        /* \"#utility.yul\":2236:2256   */\n      calldataload\n        /* \"#utility.yul\":2227:2256   */\n      swap1\n      pop\n        /* \"#utility.yul\":2265:2298   */\n      tag_83\n        /* \"#utility.yul\":2292:2297   */\n      dup2\n        /* \"#utility.yul\":2265:2298   */\n      tag_33\n      jump\t// in\n    tag_83:\n        /* \"#utility.yul\":2165:2304   */\n      swap3\n      swap2\n      pop\n      pop\n      jump\t// out\n        /* \"#utility.yul\":2310:2427   */\n    tag_35:\n        /* \"#utility.yul\":2419:2420   */\n      0x00\n        /* \"#utility.yul\":2416:2417   */\n      dup1\n        /* \"#utility.yul\":2409:2421   */\n      revert\n        /* \"#utility.yul\":2433:2550   */\n    tag_36:\n        /* \"#utility.yul\":2542:2543   */\n      0x00\n        /* \"#utility.yul\":2539:2540   */\n      dup1\n        /* \"#utility.yul\":2532:2544   */\n      revert\n        /* \"#utility.yul\":2556:2673   */\n    tag_37:\n        /* \"#utility.yul\":2665:2666   */\n      0x00\n        /* \"#utility.yul\":2662:2663   */\n      dup1\n        /* \"#utility.yul\":2655:2667   */\n      revert\n        /* \"#utility.yul\":2693:3246   */\n    tag_38:\n        /* \"#utility.yul\":2751:2759   */\n      0x00\n        /* \"#utility.yul\":2761:2767   */\n      dup1\n        /* \"#utility.yul\":2811:2814   */\n      dup4\n        /* \"#utility.yul\":2804:2808   */\n      0x1f\n        /* \"#utility.yul\":2796:2802   */\n      dup5\n        /* \"#utility.yul\":2792:2809   */\n      add\n        /* \"#utility.yul\":2788:2815   */\n      slt\n        /* \"#utility.yul\":2778:2900   */\n      tag_88\n      jumpi\n        /* \"#utility.yul\":2819:2898   */\n      tag_89\n      tag_35\n      jump\t// in\n    tag_89:\n        /* \"#utility.yul\":2778:2900   */\n    tag_88:\n        /* \"#utility.yul\":2932:2938   */\n      dup3\n        /* \"#utility.yul\":2919:2939   */\n      calldataload\n        /* \"#utility.yul\":2909:2939   */\n      swap1\n      pop\n        /* \"#utility.yul\":2962:2980   */\n      0xffffffffffffffff\n        /* \"#utility.yul\":2954:2960   */\n      dup2\n        /* \"#utility.yul\":2951:2981   */\n      gt\n        /* \"#utility.yul\":2948:3065   */\n      iszero\n      tag_90\n      jumpi\n        /* \"#utility.yul\":2984:3063   */\n      tag_91\n      tag_36\n      jump\t// in\n    tag_91:\n        /* \"#utility.yul\":2948:3065   */\n    tag_90:\n        /* \"#utility.yul\":3098:3102   */\n      0x20\n        /* \"#utility.yul\":3090:3096   */\n      dup4\n        /* \"#utility.yul\":3086:3103   */\n      add\n        /* \"#utility.yul\":3074:3103   */\n      swap2\n      pop\n        /* \"#utility.yul\":3152:3155   */\n      dup4\n        /* \"#utility.yul\":3144:3148   */\n      0x01\n        /* \"#utility.yul\":3136:3142   */\n      dup3\n        /* \"#utility.yul\":3132:3149   */\n      mul\n        /* \"#utility.yul\":3122:3130   */\n      dup4\n        /* \"#utility.yul\":3118:3150   */\n      add\n        /* \"#utility.yul\":3115:3156   */\n      gt\n        /* \"#utility.yul\":3112:3240   */\n      iszero\n      tag_92\n      jumpi\n        /* \"#utility.yul\":3159:3238   */\n      tag_93\n      tag_37\n      jump\t// in\n    tag_93:\n        /* \"#utility.yul\":3112:3240   */\n    tag_92:\n        /* \"#utility.yul\":2693:3246   */\n      swap3\n      pop\n      swap3\n      swap1\n      pop\n      jump\t// out\n        /* \"#utility.yul\":3252:3926   */\n    tag_11:\n        /* \"#utility.yul\":3332:3338   */\n      0x00\n        /* \"#utility.yul\":3340:3346   */\n      dup1\n        /* \"#utility.yul\":3348:3354   */\n      0x00\n        /* \"#utility.yul\":3397:3399   */\n      0x40\n        /* \"#utility.yul\":3385:3394   */\n      dup5\n        /* \"#utility.yul\":3376:3383   */\n      dup7\n        /* \"#utility.yul\":3372:3395   */\n      sub\n        /* \"#utility.yul\":3368:3400   */\n      slt\n        /* \"#utility.yul\":3365:3484   */\n      iszero\n      tag_95\n      jumpi\n        /* \"#utility.yul\":3403:3482   */\n      tag_96\n      tag_31\n      jump\t// in\n    tag_96:\n        /* \"#utility.yul\":3365:3484   */\n    tag_95:\n        /* \"#utility.yul\":3523:3524   */\n      0x00\n        /* \"#utility.yul\":3548:3601   */\n      tag_97\n        /* \"#utility.yul\":3593:3600   */\n      dup7\n        /* \"#utility.yul\":3584:3590   */\n      dup3\n        /* \"#utility.yul\":3573:3582   */\n      dup8\n        /* \"#utility.yul\":3569:3591   */\n      add\n        /* \"#utility.yul\":3548:3601   */\n      tag_34\n      jump\t// in\n    tag_97:\n        /* \"#utility.yul\":3538:3601   */\n      swap4\n      pop\n        /* \"#utility.yul\":3494:3611   */\n      pop\n        /* \"#utility.yul\":3678:3680   */\n      0x20\n        /* \"#utility.yul\":3667:3676   */\n      dup5\n        /* \"#utility.yul\":3663:3681   */\n      add\n        /* \"#utility.yul\":3650:3682   */\n      calldataload\n        /* \"#utility.yul\":3709:3727   */\n      0xffffffffffffffff\n        /* \"#utility.yul\":3701:3707   */\n      dup2\n        /* \"#utility.yul\":3698:3728   */\n      gt\n        /* \"#utility.yul\":3695:3812   */\n      iszero\n      tag_98\n      jumpi\n        /* \"#utility.yul\":3731:3810   */\n      tag_99\n      tag_32\n      jump\t// in\n    tag_99:\n        /* \"#utility.yul\":3695:3812   */\n    tag_98:\n        /* \"#utility.yul\":3844:3909   */\n      tag_100\n        /* \"#utility.yul\":3901:3908   */\n      dup7\n        /* \"#utility.yul\":3892:3898   */\n      dup3\n        /* \"#utility.yul\":3881:3890   */\n      dup8\n        /* \"#utility.yul\":3877:3899   */\n      add\n        /* \"#utility.yul\":3844:3909   */\n      tag_38\n      jump\t// in\n    tag_100:\n        /* \"#utility.yul\":3826:3909   */\n      swap3\n      pop\n      swap3\n      pop\n        /* \"#utility.yul\":3621:3919   */\n      pop\n        /* \"#utility.yul\":3252:3926   */\n      swap3\n      pop\n      swap3\n      pop\n      swap3\n      jump\t// out\n        /* \"#utility.yul\":3932:4112   */\n    tag_39:\n        /* \"#utility.yul\":3980:4057   */\n      0x4e487b7100000000000000000000000000000000000000000000000000000000\n        /* \"#utility.yul\":3977:3978   */\n      0x00\n        /* \"#utility.yul\":3970:4058   */\n      mstore\n        /* \"#utility.yul\":4077:4081   */\n      0x22\n        /* \"#utility.yul\":4074:4075   */\n      0x04\n        /* \"#utility.yul\":4067:4082   */\n      mstore\n        /* \"#utility.yul\":4101:4105   */\n      0x24\n        /* \"#utility.yul\":4098:4099   */\n      0x00\n        /* \"#utility.yul\":4091:4106   */\n      revert\n        /* \"#utility.yul\":4118:4438   */\n    tag_14:\n        /* \"#utility.yul\":4162:4168   */\n      0x00\n        /* \"#utility.yul\":4199:4200   */\n      0x02\n        /* \"#utility.yul\":4193:4197   */\n      dup3\n        /* \"#utility.yul\":4189:4201   */\n      div\n        /* \"#utility.yul\":4179:4201   */\n      swap1\n      pop\n        /* \"#utility.yul\":4246:4247   */\n      0x01\n        /* \"#utility.yul\":4240:4244   */\n      dup3\n        /* \"#utility.yul\":4236:4248   */\n      and\n        /* \"#utility.yul\":4267:4285   */\n      dup1\n        /* \"#utility.yul\":4257:4338   */\n      tag_103\n      jumpi\n        /* \"#utility.yul\":4323:4327   */\n      0x7f\n        /* \"#utility.yul\":4315:4321   */\n      dup3\n        /* \"#utility.yul\":4311:4328   */\n      and\n        /* \"#utility.yul\":4301:4328   */\n      swap2\n      pop\n        /* \"#utility.yul\":4257:4338   */\n    tag_103:\n        /* \"#utility.yul\":4385:4387   */\n      0x20\n        /* \"#utility.yul\":4377:4383   */\n      dup3\n        /* \"#utility.yul\":4374:4388   */\n      lt\n        /* \"#utility.yul\":4354:4372   */\n      dup2\n        /* \"#utility.yul\":4351:4389   */\n      sub\n        /* \"#utility.yul\":4348:4432   */\n      tag_104\n      jumpi\n        /* \"#utility.yul\":4404:4422   */\n      tag_105\n      tag_39\n      jump\t// in\n    tag_105:\n        /* \"#utility.yul\":4348:4432   */\n    tag_104:\n        /* \"#utility.yul\":4169:4438   */\n      pop\n        /* \"#utility.yul\":4118:4438   */\n      swap2\n      swap1\n      pop\n      jump\t// out\n        /* \"#utility.yul\":4444:4541   */\n    tag_40:\n        /* \"#utility.yul\":4503:4509   */\n      0x00\n        /* \"#utility.yul\":4531:4534   */\n      dup3\n        /* \"#utility.yul\":4521:4534   */\n      swap1\n      pop\n        /* \"#utility.yul\":4444:4541   */\n      swap3\n      swap2\n      pop\n      pop\n      jump\t// out\n        /* \"#utility.yul\":4547:4727   */\n    tag_41:\n        /* \"#utility.yul\":4595:4672   */\n      0x4e487b7100000000000000000000000000000000000000000000000000000000\n        /* \"#utility.yul\":4592:4593   */\n      0x00\n        /* \"#utility.yul\":4585:4673   */\n      mstore\n        /* \"#utility.yul\":4692:4696   */\n      0x41\n        /* \"#utility.yul\":4689:4690   */\n      0x04\n        /* \"#utility.yul\":4682:4697   */\n      mstore\n        /* \"#utility.yul\":4716:4720   */\n      0x24\n        /* \"#utility.yul\":4713:4714   */\n      0x00\n        /* \"#utility.yul\":4706:4721   */\n      revert\n        /* \"#utility.yul\":4733:4874   */\n    tag_42:\n        /* \"#utility.yul\":4782:4786   */\n      0x00\n        /* \"#utility.yul\":4805:4808   */\n      dup2\n        /* \"#utility.yul\":4797:4808   */\n      swap1\n      pop\n        /* \"#utility.yul\":4828:4831   */\n      dup2\n        /* \"#utility.yul\":4825:4826   */\n      0x00\n        /* \"#utility.yul\":4818:4832   */\n      mstore\n        /* \"#utility.yul\":4862:4866   */\n      0x20\n        /* \"#utility.yul\":4859:4860   */\n      0x00\n        /* \"#utility.yul\":4849:4867   */\n      keccak256\n        /* \"#utility.yul\":4841:4867   */\n      swap1\n      pop\n        /* \"#utility.yul\":4733:4874   */\n      swap2\n      swap1\n      pop\n      jump\t// out\n        /* \"#utility.yul\":4880:4973   */\n    tag_43:\n        /* \"#utility.yul\":4917:4923   */\n      0x00\n        /* \"#utility.yul\":4964:4966   */\n      0x20\n        /* \"#utility.yul\":4959:4961   */\n      0x1f\n        /* \"#utility.yul\":4952:4957   */\n      dup4\n        /* \"#utility.yul\":4948:4962   */\n      add\n        /* \"#utility.yul\":4944:4967   */\n      div\n        /* \"#utility.yul\":4934:4967   */\n      swap1\n      pop\n        /* \"#utility.yul\":4880:4973   */\n      swap2\n      swap1\n      pop\n      jump\t// out\n        /* \"#utility.yul\":4979:5086   */\n    tag_44:\n        /* \"#utility.yul\":5023:5031   */\n      0x00\n        /* \"#utility.yul\":5073:5078   */\n      dup3\n        /* \"#utility.yul\":5067:5071   */\n      dup3\n        /* \"#utility.yul\":5063:5079   */\n      shl\n        /* \"#utility.yul\":5042:5079   */\n      swap1\n      pop\n        /* \"#utility.yul\":4979:5086   */\n      swap3\n      swap2\n      pop\n      pop\n      jump\t// out\n        /* \"#utility.yul\":5092:5485   */\n    tag_45:\n        /* \"#utility.yul\":5161:5167   */\n      0x00\n        /* \"#utility.yul\":5211:5212   */\n      0x08\n        /* \"#utility.yul\":5199:5209   */\n      dup4\n        /* \"#utility.yul\":5195:5213   */\n      mul\n        /* \"#utility.yul\":5234:5331   */\n      tag_112\n        /* \"#utility.yul\":5264:5330   */\n      0xffffffffffffffffffffffffffffffffffffffffffffffffffffffffffffffff\n        /* \"#utility.yul\":5253:5262   */\n      dup3\n        /* \"#utility.yul\":5234:5331   */\n      tag_44\n      jump\t// in\n    tag_112:\n        /* \"#utility.yul\":5352:5391   */\n      tag_113\n        /* \"#utility.yul\":5382:5390   */\n      dup7\n        /* \"#utility.yul\":5371:5380   */\n      dup4\n        /* \"#utility.yul\":5352:5391   */\n      tag_44\n      jump\t// in\n    tag_113:\n        /* \"#utility.yul\":5340:5391   */\n      swap6\n      pop\n        /* \"#utility.yul\":5424:5428   */\n      dup1\n        /* \"#utility.yul\":5420:5429   */\n      not\n        /* \"#utility.yul\":5413:5418   */\n      dup5\n        /* \"#utility.yul\":5409:5430   */\n      and\n        /* \"#utility.yul\":5400:5430   */\n      swap4\n      pop\n        /* \"#utility.yul\":5473:5477   */\n      dup1\n        /* \"#utility.yul\":5463:5471   */\n      dup7\n        /* \"#utility.yul\":5459:5478   */\n      and\n        /* \"#utility.yul\":5452:5457   */\n      dup5\n        /* \"#utility.yul\":5449:5479   */\n      or\n        /* \"#utility.yul\":5439:5479   */\n      swap3\n      pop\n        /* \"#utility.yul\":5168:5485   */\n      pop\n      pop\n        /* \"#utility.yul\":5092:5485   */\n      swap4\n      swap3\n      pop\n      pop\n      pop\n      jump\t// out\n        /* \"#utility.yul\":5491:5568   */\n    tag_46:\n        /* \"#utility.yul\":5528:5535   */\n      0x00\n        /* \"#utility.yul\":5557:5562   */\n      dup2\n        /* \"#utility.yul\":5546:5562   */\n      swap1\n      pop\n        /* \"#utility.yul\":5491:5568   */\n      swap2\n      swap1\n      pop\n      jump\t// out\n        /* \"#utility.yul\":5574:5634   */\n    tag_47:\n        /* \"#utility.yul\":5602:5605   */\n      0x00\n        /* \"#utility.yul\":5623:5628   */\n      dup2\n        /* \"#utility.yul\":5616:5628   */\n      swap1\n      pop\n        /* \"#utility.yul\":5574:5634   */\n      swap2\n      swap1\n      pop\n      jump\t// out\n        /* \"#utility.yul\":5640:5782   */\n    tag_48:\n        /* \"#utility.yul\":5690:5699   */\n      0x00\n        /* \"#utility.yul\":5723:5776   */\n      tag_117\n        /* \"#utility.yul\":5741:5775   */\n      tag_118\n        /* \"#utility.yul\":5750:5774   */\n      tag_119\n        /* \"#utility.yul\":5768:5773   */\n      dup5\n        /* \"#utility.yul\":5750:5774   */\n      tag_46\n      jump\t// in\n    tag_119:\n        /* \"#utility.yul\":5741:5775   */\n      tag_47\n      jump\t// in\n    tag_118:\n        /* \"#utility.yul\":5723:5776   */\n      tag_46\n      jump\t// in\n    tag_117:\n        /* \"#utility.yul\":5710:5776   */\n      swap1\n      pop\n        /* \"#utility.yul\":5640:5782   */\n      swap2\n      swap1\n      pop\n      jump\t// out\n        /* \"#utility.yul\":5788:5863   */\n    tag_49:\n        /* \"#utility.yul\":5831:5834   */\n      0x00\n        /* \"#utility.yul\":5852:5857   */\n      dup2\n        /* \"#utility.yul\":5845:5857   */\n      swap1\n      pop\n        /* \"#utility.yul\":5788:5863   */\n      swap2\n      swap1\n      pop\n      jump\t// out\n        /* \"#utility.yul\":5869:6138   */\n    tag_50:\n        /* \"#utility.yul\":5979:6018   */\n      tag_122\n        /* \"#utility.yul\":6010:6017   */\n      dup4\n        /* \"#utility.yul\":5979:6018   */\n      tag_48\n      jump\t// in\n    tag_122:\n        /* \"#utility.yul\":6040:6131   */\n      tag_123\n        /* \"#utility.yul\":6089:6130   */\n      tag_124\n        /* \"#utility.yul\":6113:6129   */\n      dup3\n        /* \"#utility.yul\":6089:6130   */\n      tag_49\n      jump\t// in\n    tag_124:\n        /* \"#utility.yul\":6081:6087   */\n      dup5\n        /* \"#utility.yul\":6074:6078   */\n      dup5\n        /* \"#utility.yul\":6068:6079   */\n      sload\n        /* \"#utility.yul\":6040:6131   */\n      tag_45\n      jump\t// in\n    tag_123:\n        /* \"#utility.yul\":6034:6038   */\n      dup3\n        /* \"#utility.yul\":6027:6132   */\n      sstore\n        /* \"#utility.yul\":5945:6138   */\n      pop\n        /* \"#utility.yul\":5869:6138   */\n      pop\n      pop\n      pop\n      jump\t// out\n        /* \"#utility.yul\":6144:6217   */\n    tag_51:\n        /* \"#utility.yul\":6189:6192   */\n      0x00\n        /* \"#utility.yul\":6144:6217   */\n      swap1\n      jump\t// out\n        /* \"#utility.yul\":6223:6412   */\n    tag_52:\n        /* \"#utility.yul\":6300:6332   */\n      tag_127\n      tag_51\n      jump\t// in\n    tag_127:\n        /* \"#utility.yul\":6341:6406   */\n      tag_128\n        /* \"#utility.yul\":6399:6405   */\n      dup2\n        /* \"#utility.yul\":6391:6397   */\n      dup5\n        /* \"#utility.yul\":6385:6389   */\n      dup5\n        /* \"#utility.yul\":6341:6406   */\n      tag_50\n      jump\t// in\n    tag_128:\n        /* \"#utility.yul\":6276:6412   */\n      pop\n        /* \"#utility.yul\":6223:6412   */\n      pop\n      pop\n      jump\t// out\n        /* \"#utility.yul\":6418:6604   */\n    tag_53:\n        /* \"#utility.yul\":6478:6598   */\n    tag_130:\n        /* \"#utility.yul\":6495:6498   */\n      dup2\n        /* \"#utility.yul\":6488:6493   */\n      dup2\n        /* \"#utility.yul\":6485:6499   */\n      lt\n        /* \"#utility.yul\":6478:6598   */\n      iszero\n      tag_132\n      jumpi\n        /* \"#utility.yul\":6549:6588   */\n      tag_133\n        /* \"#utility.yul\":6586:6587   */\n      0x00\n        /* \"#utility.yul\":6579:6584   */\n      dup3\n        /* \"#utility.yul\":6549:6588   */\n      tag_52\n      jump\t// in\n    tag_133:\n        /* \"#utility.yul\":6522:6523   */\n      0x01\n        /* \"#utility.yul\":6515:6520   */\n      dup2\n        /* \"#utility.yul\":6511:6524   */\n      add\n        /* \"#utility.yul\":6502:6524   */\n      swap1\n      pop\n        /* \"#utility.yul\":6478:6598   */\n      jump(tag_130)\n    tag_132:\n        /* \"#utility.yul\":6418:6604   */\n      pop\n      pop\n      jump\t// out\n        /* \"#utility.yul\":6610:7153   */\n    tag_54:\n        /* \"#utility.yul\":6711:6713   */\n      0x1f\n        /* \"#utility.yul\":6706:6709   */\n      dup3\n        /* \"#utility.yul\":6703:6714   */\n      gt\n        /* \"#utility.yul\":6700:7146   */\n      iszero\n      tag_135\n      jumpi\n        /* \"#utility.yul\":6745:6783   */\n      tag_136\n        /* \"#utility.yul\":6777:6782   */\n      dup2\n        /* \"#utility.yul\":6745:6783   */\n      tag_42\n      jump\t// in\n    tag_136:\n        /* \"#utility.yul\":6829:6858   */\n      tag_137\n        /* \"#utility.yul\":6847:6857   */\n      dup5\n        /* \"#utility.yul\":6829:6858   */\n      tag_43\n      jump\t// in\n    tag_137:\n        /* \"#utility.yul\":6819:6827   */\n      dup2\n        /* \"#utility.yul\":6815:6859   */\n      add\n        /* \"#utility.yul\":7012:7014   */\n      0x20\n        /* \"#utility.yul\":7000:7010   */\n      dup6\n        /* \"#utility.yul\":6997:7015   */\n      lt\n        /* \"#utility.yul\":6994:7043   */\n      iszero\n      tag_138\n      jumpi\n        /* \"#utility.yul\":7033:7041   */\n      dup2\n        /* \"#utility.yul\":7018:7041   */\n      swap1\n      pop\n        /* \"#utility.yul\":6994:7043   */\n    tag_138:\n        /* \"#utility.yul\":7056:7136   */\n      tag_139\n        /* \"#utility.yul\":7112:7134   */\n      tag_140\n        /* \"#utility.yul\":7130:7133   */\n      dup6\n        /* \"#utility.yul\":7112:7134   */\n      tag_43\n      jump\t// in\n    tag_140:\n        /* \"#utility.yul\":7102:7110   */\n      dup4\n        /* \"#utility.yul\":7098:7135   */\n      add\n        /* \"#utility.yul\":7085:7096   */\n      dup3\n        /* \"#utility.yul\":7056:7136   */\n      tag_53\n      jump\t// in\n    tag_139:\n        /* \"#utility.yul\":6715:7146   */\n      pop\n      pop\n        /* \"#utility.yul\":6700:7146   */\n    tag_135:\n        /* \"#utility.yul\":6610:7153   */\n      pop\n      pop\n      pop\n      jump\t// out\n        /* \"#utility.yul\":7159:7276   */\n    tag_55:\n        /* \"#utility.yul\":7213:7221   */\n      0x00\n        /* \"#utility.yul\":7263:7268   */\n      dup3\n        /* \"#utility.yul\":7257:7261   */\n      dup3\n        /* \"#utility.yul\":7253:7269   */\n      shr\n        /* \"#utility.yul\":7232:7269   */\n      swap1\n      pop\n        /* \"#utility.yul\":7159:7276   */\n      swap3\n      swap2\n      pop\n      pop\n      jump\t// out\n        /* \"#utility.yul\":7282:7451   */\n    tag_56:\n        /* \"#utility.yul\":7326:7332   */\n      0x00\n        /* \"#utility.yul\":7359:7410   */\n      tag_143\n        /* \"#utility.yul\":7407:7408   */\n      0x00\n        /* \"#utility.yul\":7403:7409   */\n      not\n        /* \"#utility.yul\":7395:7400   */\n      dup5\n        /* \"#utility.yul\":7392:7393   */\n      0x08\n        /* \"#utility.yul\":7388:7401   */\n      mul\n        /* \"#utility.yul\":7359:7410   */\n      tag_55\n      jump\t// in\n    tag_143:\n        /* \"#utility.yul\":7355:7411   */\n      not\n        /* \"#utility.yul\":7440:7444   */\n      dup1\n        /* \"#utility.yul\":7434:7438   */\n      dup4\n        /* \"#utility.yul\":7430:7445   */\n      and\n        /* \"#utility.yul\":7420:7445   */\n      swap2\n      pop\n        /* \"#utility.yul\":7333:7451   */\n      pop\n        /* \"#utility.yul\":7282:7451   */\n      swap3\n      swap2\n      pop\n      pop\n      jump\t// out\n        /* \"#utility.yul\":7456:7751   */\n    tag_57:\n        /* \"#utility.yul\":7532:7536   */\n      0x00\n        /* \"#utility.yul\":7678:7707   */\n      tag_145\n        /* \"#utility.yul\":7703:7706   */\n      dup4\n        /* \"#utility.yul\":7697:7701   */\n      dup4\n        /* \"#utility.yul\":7678:7707   */\n      tag_56\n      jump\t// in\n    tag_145:\n        /* \"#utility.yul\":7670:7707   */\n      swap2\n      pop\n        /* \"#utility.yul\":7740:7743   */\n      dup3\n        /* \"#utility.yul\":7737:7738   */\n      0x02\n        /* \"#utility.yul\":7733:7744   */\n      mul\n        /* \"#utility.yul\":7727:7731   */\n      dup3\n        /* \"#utility.yul\":7724:7745   */\n      or\n        /* \"#utility.yul\":7716:7745   */\n      swap1\n      pop\n        /* \"#utility.yul\":7456:7751   */\n      swap3\n      swap2\n      pop\n      pop\n      jump\t// out\n        /* \"#utility.yul\":7756:9159   */\n    tag_21:\n        /* \"#utility.yul\":7880:7924   */\n      tag_147\n        /* \"#utility.yul\":7920:7923   */\n      dup4\n        /* \"#utility.yul\":7915:7918   */\n      dup4\n        /* \"#utility.yul\":7880:7924   */\n      tag_40\n      jump\t// in\n    tag_147:\n        /* \"#utility.yul\":7989:8007   */\n      0xffffffffffffffff\n        /* \"#utility.yul\":7981:7987   */\n      dup2\n        /* \"#utility.yul\":7978:8008   */\n      gt\n        /* \"#utility.yul\":7975:8031   */\n      iszero\n      tag_148\n      jumpi\n        /* \"#utility.yul\":8011:8029   */\n      tag_149\n      tag_41\n      jump\t// in\n    tag_149:\n        /* \"#utility.yul\":7975:8031   */\n    tag_148:\n        /* \"#utility.yul\":8055:8093   */\n      tag_150\n        /* \"#utility.yul\":8087:8091   */\n      dup3\n        /* \"#utility.yul\":8081:8092   */\n      sload\n        /* \"#utility.yul\":8055:8093   */\n      tag_14\n      jump\t// in\n    tag_150:\n        /* \"#utility.yul\":8140:8207   */\n      tag_151\n        /* \"#utility.yul\":8200:8206   */\n      dup3\n        /* \"#utility.yul\":8192:8198   */\n      dup3\n        /* \"#utility.yul\":8186:8190   */\n      dup6\n        /* \"#utility.yul\":8140:8207   */\n      tag_54\n      jump\t// in\n    tag_151:\n        /* \"#utility.yul\":8234:8235   */\n      0x00\n        /* \"#utility.yul\":8263:8265   */\n      0x1f\n        /* \"#utility.yul\":8255:8261   */\n      dup4\n        /* \"#utility.yul\":8252:8266   */\n      gt\n        /* \"#utility.yul\":8280:8281   */\n      0x01\n        /* \"#utility.yul\":8275:8907   */\n      dup2\n      eq\n      tag_153\n      jumpi\n        /* \"#utility.yul\":8951:8952   */\n      0x00\n        /* \"#utility.yul\":8968:8974   */\n      dup5\n        /* \"#utility.yul\":8965:9049   */\n      iszero\n      tag_154\n      jumpi\n        /* \"#utility.yul\":9024:9033   */\n      dup3\n        /* \"#utility.yul\":9019:9022   */\n      dup8\n        /* \"#utility.yul\":9015:9034   */\n      add\n        /* \"#utility.yul\":9002:9035   */\n      calldataload\n        /* \"#utility.yul\":8993:9035   */\n      swap1\n      pop\n        /* \"#utility.yul\":8965:9049   */\n    tag_154:\n        /* \"#utility.yul\":9075:9142   */\n      tag_155\n        /* \"#utility.yul\":9135:9141   */\n      dup6\n        /* \"#utility.yul\":9128:9133   */\n      dup3\n        /* \"#utility.yul\":9075:9142   */\n      tag_57\n      jump\t// in\n    tag_155:\n        /* \"#utility.yul\":9069:9073   */\n      dup7\n        /* \"#utility.yul\":9062:9143   */\n      sstore\n        /* \"#utility.yul\":8924:9153   */\n      pop\n        /* \"#utility.yul\":8245:9153   */\n      jump(tag_152)\n        /* \"#utility.yul\":8275:8907   */\n    tag_153:\n        /* \"#utility.yul\":8327:8331   */\n      0x1f\n        /* \"#utility.yul\":8323:8332   */\n      not\n        /* \"#utility.yul\":8315:8321   */\n      dup5\n        /* \"#utility.yul\":8311:8333   */\n      and\n        /* \"#utility.yul\":8361:8398   */\n      tag_156\n        /* \"#utility.yul\":8393:8397   */\n      dup7\n        /* \"#utility.yul\":8361:8398   */\n      tag_42\n      jump\t// in\n    tag_156:\n        /* \"#utility.yul\":8420:8421   */\n      0x00\n        /* \"#utility.yul\":8434:8649   */\n    tag_157:\n        /* \"#utility.yul\":8448:8455   */\n      dup3\n        /* \"#utility.yul\":8445:8446   */\n      dup2\n        /* \"#utility.yul\":8442:8456   */\n      lt\n        /* \"#utility.yul\":8434:8649   */\n      iszero\n      tag_159\n      jumpi\n        /* \"#utility.yul\":8534:8543   */\n      dup5\n        /* \"#utility.yul\":8529:8532   */\n      dup10\n        /* \"#utility.yul\":8525:8544   */\n      add\n        /* \"#utility.yul\":8512:8545   */\n      calldataload\n        /* \"#utility.yul\":8504:8510   */\n      dup3\n        /* \"#utility.yul\":8497:8546   */\n      sstore\n        /* \"#utility.yul\":8585:8586   */\n      0x01\n        /* \"#utility.yul\":8577:8583   */\n      dup3\n        /* \"#utility.yul\":8573:8587   */\n      add\n        /* \"#utility.yul\":8563:8587   */\n      swap2\n      pop\n        /* \"#utility.yul\":8632:8634   */\n      0x20\n        /* \"#utility.yul\":8621:8630   */\n      dup6\n        /* \"#utility.yul\":8617:8635   */\n      add\n        /* \"#utility.yul\":8604:8635   */\n      swap5\n      pop\n        /* \"#utility.yul\":8471:8475   */\n      0x20\n        /* \"#utility.yul\":8468:8469   */\n      dup2\n        /* \"#utility.yul\":8464:8476   */\n      add\n        /* \"#utility.yul\":8459:8476   */\n      swap1\n      pop\n        /* \"#utility.yul\":8434:8649   */\n      jump(tag_157)\n    tag_159:\n        /* \"#utility.yul\":8677:8683   */\n      dup7\n        /* \"#utility.yul\":8668:8675   */\n      dup4\n        /* \"#utility.yul\":8665:8684   */\n      lt\n        /* \"#utility.yul\":8662:8848   */\n      iszero\n      tag_160\n      jumpi\n        /* \"#utility.yul\":8742:8751   */\n      dup5\n        /* \"#utility.yul\":8737:8740   */\n      dup10\n        /* \"#utility.yul\":8733:8752   */\n      add\n        /* \"#utility.yul\":8720:8753   */\n      calldataload\n        /* \"#utility.yul\":8785:8833   */\n      tag_161\n        /* \"#utility.yul\":8827:8831   */\n      0x1f\n        /* \"#utility.yul\":8819:8825   */\n      dup10\n        /* \"#utility.yul\":8815:8832   */\n      and\n        /* \"#utility.yul\":8804:8813   */\n      dup3\n        /* \"#utility.yul\":8785:8833   */\n      tag_56\n      jump\t// in\n    tag_161:\n        /* \"#utility.yul\":8777:8783   */\n      dup4\n        /* \"#utility.yul\":8770:8834   */\n      sstore\n        /* \"#utility.yul\":8685:8848   */\n      pop\n        /* \"#utility.yul\":8662:8848   */\n    tag_160:\n        /* \"#utility.yul\":8894:8895   */\n      0x01\n        /* \"#utility.yul\":8890:8891   */\n      0x02\n        /* \"#utility.yul\":8882:8888   */\n      dup9\n        /* \"#utility.yul\":8878:8892   */\n      mul\n        /* \"#utility.yul\":8874:8896   */\n      add\n        /* \"#utility.yul\":8868:8872   */\n      dup9\n        /* \"#utility.yul\":8861:8897   */\n      sstore\n        /* \"#utility.yul\":8282:8907   */\n      pop\n      pop\n      pop\n        /* \"#utility.yul\":8245:9153   */\n    tag_152:\n      pop\n        /* \"#utility.yul\":7855:9159   */\n      pop\n      pop\n      pop\n        /* \"#utility.yul\":7756:9159   */\n      pop\n      pop\n      pop\n      jump\t// out\n\n    auxdata: 0xa264697066735822122025bf3c346a619b3e06015558b3fcfd8264a3164c4953bfa2622e5fe5c54a695c64736f6c634300081a0033\n}\n",
				"bytecode": {
					"linkReferences": {},
					"object": "6080604052348015600e575f80fd5b5061068c8061001c5f395ff3fe608060405234801561000f575f80fd5b5060043610610034575f3560e01c80635f57697c14610038578063f321b30514610057575b5f80fd5b610040610073565b60405161004e929190610231565b60405180910390f35b610071600480360381019061006c91906102f2565b610128565b005b5f805f015f9054906101000a900473ffffffffffffffffffffffffffffffffffffffff16908060010180546100a79061037c565b80601f01602080910402602001604051908101604052809291908181526020018280546100d39061037c565b801561011e5780601f106100f55761010080835404028352916020019161011e565b820191905f5260205f20905b81548152906001019060200180831161010157829003601f168201915b5050505050905082565b825f80015f6101000a81548173ffffffffffffffffffffffffffffffffffffffff021916908373ffffffffffffffffffffffffffffffffffffffff16021790555081815f600101918261017c929190610589565b50505050565b5f73ffffffffffffffffffffffffffffffffffffffff82169050919050565b5f6101ab82610182565b9050919050565b6101bb816101a1565b82525050565b5f81519050919050565b5f82825260208201905092915050565b8281835e5f83830152505050565b5f601f19601f8301169050919050565b5f610203826101c1565b61020d81856101cb565b935061021d8185602086016101db565b610226816101e9565b840191505092915050565b5f6040820190506102445f8301856101b2565b818103602083015261025681846101f9565b90509392505050565b5f80fd5b5f80fd5b610270816101a1565b811461027a575f80fd5b50565b5f8135905061028b81610267565b92915050565b5f80fd5b5f80fd5b5f80fd5b5f8083601f8401126102b2576102b1610291565b5b8235905067ffffffffffffffff8111156102cf576102ce610295565b5b6020830191508360018202830111156102eb576102ea610299565b5b9250929050565b5f805f604084860312156103095761030861025f565b5b5f6103168682870161027d565b935050602084013567ffffffffffffffff81111561033757610336610263565b5b6103438682870161029d565b92509250509250925092565b7f4e487b71000000000000000000000000000000000000000000000000000000005f52602260045260245ffd5b5f600282049050600182168061039357607f821691505b6020821081036103a6576103a561034f565b5b50919050565b5f82905092915050565b7f4e487b71000000000000000000000000000000000000000000000000000000005f52604160045260245ffd5b5f819050815f5260205f209050919050565b5f6020601f8301049050919050565b5f82821b905092915050565b5f6008830261043f7fffffffffffffffffffffffffffffffffffffffffffffffffffffffffffffffff82610404565b6104498683610404565b95508019841693508086168417925050509392505050565b5f819050919050565b5f819050919050565b5f61048d61048861048384610461565b61046a565b610461565b9050919050565b5f819050919050565b6104a683610473565b6104ba6104b282610494565b848454610410565b825550505050565b5f90565b6104ce6104c2565b6104d981848461049d565b505050565b5b818110156104fc576104f15f826104c6565b6001810190506104df565b5050565b601f82111561054157610512816103e3565b61051b846103f5565b8101602085101561052a578190505b61053e610536856103f5565b8301826104de565b50505b505050565b5f82821c905092915050565b5f6105615f1984600802610546565b1980831691505092915050565b5f6105798383610552565b9150826002028217905092915050565b61059383836103ac565b67ffffffffffffffff8111156105ac576105ab6103b6565b5b6105b6825461037c565b6105c1828285610500565b5f601f8311600181146105ee575f84156105dc578287013590505b6105e6858261056e565b86555061064d565b601f1984166105fc866103e3565b5f5b82811015610623578489013582556001820191506020850194506020810190506105fe565b86831015610640578489013561063c601f891682610552565b8355505b6001600288020188555050505b5050505050505056fea264697066735822122025bf3c346a619b3e06015558b3fcfd8264a3164c4953bfa2622e5fe5c54a695c64736f6c634300081a0033",
					"opcodes": "PUSH1 0x80 PUSH1 0x40 MSTORE CALLVALUE DUP1 ISZERO PUSH1 0xE JUMPI PUSH0 DUP1 REVERT JUMPDEST POP PUSH2 0x68C DUP1 PUSH2 0x1C PUSH0 CODECOPY PUSH0 RETURN INVALID PUSH1 0x80 PUSH1 0x40 MSTORE CALLVALUE DUP1 ISZERO PUSH2 0xF JUMPI PUSH0 DUP1 REVERT JUMPDEST POP PUSH1 0x4 CALLDATASIZE LT PUSH2 0x34 JUMPI PUSH0 CALLDATALOAD PUSH1 0xE0 SHR DUP1 PUSH4 0x5F57697C EQ PUSH2 0x38 JUMPI DUP1 PUSH4 0xF321B305 EQ PUSH2 0x57 JUMPI JUMPDEST PUSH0 DUP1 REVERT JUMPDEST PUSH2 0x40 PUSH2 0x73 JUMP JUMPDEST PUSH1 0x40 MLOAD PUSH2 0x4E SWAP3 SWAP2 SWAP1 PUSH2 0x231 JUMP JUMPDEST PUSH1 0x40 MLOAD DUP1 SWAP2 SUB SWAP1 RETURN JUMPDEST PUSH2 0x71 PUSH1 0x4 DUP1 CALLDATASIZE SUB DUP2 ADD SWAP1 PUSH2 0x6C SWAP2 SWAP1 PUSH2 0x2F2 JUMP JUMPDEST PUSH2 0x128 JUMP JUMPDEST STOP JUMPDEST PUSH0 DUP1 PUSH0 ADD PUSH0 SWAP1 SLOAD SWAP1 PUSH2 0x100 EXP SWAP1 DIV PUSH20 0xFFFFFFFFFFFFFFFFFFFFFFFFFFFFFFFFFFFFFFFF AND SWAP1 DUP1 PUSH1 0x1 ADD DUP1 SLOAD PUSH2 0xA7 SWAP1 PUSH2 0x37C JUMP JUMPDEST DUP1 PUSH1 0x1F ADD PUSH1 0x20 DUP1 SWAP2 DIV MUL PUSH1 0x20 ADD PUSH1 0x40 MLOAD SWAP1 DUP2 ADD PUSH1 0x40 MSTORE DUP1 SWAP3 SWAP2 SWAP1 DUP2 DUP2 MSTORE PUSH1 0x20 ADD DUP3 DUP1 SLOAD PUSH2 0xD3 SWAP1 PUSH2 0x37C JUMP JUMPDEST DUP1 ISZERO PUSH2 0x11E JUMPI DUP1 PUSH1 0x1F LT PUSH2 0xF5 JUMPI PUSH2 0x100 DUP1 DUP4 SLOAD DIV MUL DUP4 MSTORE SWAP2 PUSH1 0x20 ADD SWAP2 PUSH2 0x11E JUMP JUMPDEST DUP3 ADD SWAP2 SWAP1 PUSH0 MSTORE PUSH1 0x20 PUSH0 KECCAK256 SWAP1 JUMPDEST DUP2 SLOAD DUP2 MSTORE SWAP1 PUSH1 0x1 ADD SWAP1 PUSH1 0x20 ADD DUP1 DUP4 GT PUSH2 0x101 JUMPI DUP3 SWAP1 SUB PUSH1 0x1F AND DUP3 ADD SWAP2 JUMPDEST POP POP POP POP POP SWAP1 POP DUP3 JUMP JUMPDEST DUP3 PUSH0 DUP1 ADD PUSH0 PUSH2 0x100 EXP DUP2 SLOAD DUP2 PUSH20 0xFFFFFFFFFFFFFFFFFFFFFFFFFFFFFFFFFFFFFFFF MUL NOT AND SWAP1 DUP4 PUSH20 0xFFFFFFFFFFFFFFFFFFFFFFFFFFFFFFFFFFFFFFFF AND MUL OR SWAP1 SSTORE POP DUP2 DUP2 PUSH0 PUSH1 0x1 ADD SWAP2 DUP3 PUSH2 0x17C SWAP3 SWAP2 SWAP1 PUSH2 0x589 JUMP JUMPDEST POP POP POP POP JUMP JUMPDEST PUSH0 PUSH20 0xFFFFFFFFFFFFFFFFFFFFFFFFFFFFFFFFFFFFFFFF DUP3 AND SWAP1 POP SWAP2 SWAP1 POP JUMP JUMPDEST PUSH0 PUSH2 0x1AB DUP3 PUSH2 0x182 JUMP JUMPDEST SWAP1 POP SWAP2 SWAP1 POP JUMP JUMPDEST PUSH2 0x1BB DUP2 PUSH2 0x1A1 JUMP JUMPDEST DUP3 MSTORE POP POP JUMP JUMPDEST PUSH0 DUP2 MLOAD SWAP1 POP SWAP2 SWAP1 POP JUMP JUMPDEST PUSH0 DUP3 DUP3 MSTORE PUSH1 0x20 DUP3 ADD SWAP1 POP SWAP3 SWAP2 POP POP JUMP JUMPDEST DUP3 DUP2 DUP4 MCOPY PUSH0 DUP4 DUP4 ADD MSTORE POP POP POP JUMP JUMPDEST PUSH0 PUSH1 0x1F NOT PUSH1 0x1F DUP4 ADD AND SWAP1 POP SWAP2 SWAP1 POP JUMP JUMPDEST PUSH0 PUSH2 0x203 DUP3 PUSH2 0x1C1 JUMP JUMPDEST PUSH2 0x20D DUP2 DUP6 PUSH2 0x1CB JUMP JUMPDEST SWAP4 POP PUSH2 0x21D DUP2 DUP6 PUSH1 0x20 DUP7 ADD PUSH2 0x1DB JUMP JUMPDEST PUSH2 0x226 DUP2 PUSH2 0x1E9 JUMP JUMPDEST DUP5 ADD SWAP2 POP POP SWAP3 SWAP2 POP POP JUMP JUMPDEST PUSH0 PUSH1 0x40 DUP3 ADD SWAP1 POP PUSH2 0x244 PUSH0 DUP4 ADD DUP6 PUSH2 0x1B2 JUMP JUMPDEST DUP2 DUP2 SUB PUSH1 0x20 DUP4 ADD MSTORE PUSH2 0x256 DUP2 DUP5 PUSH2 0x1F9 JUMP JUMPDEST SWAP1 POP SWAP4 SWAP3 POP POP POP JUMP JUMPDEST PUSH0 DUP1 REVERT JUMPDEST PUSH0 DUP1 REVERT JUMPDEST PUSH2 0x270 DUP2 PUSH2 0x1A1 JUMP JUMPDEST DUP2 EQ PUSH2 0x27A JUMPI PUSH0 DUP1 REVERT JUMPDEST POP JUMP JUMPDEST PUSH0 DUP2 CALLDATALOAD SWAP1 POP PUSH2 0x28B DUP2 PUSH2 0x267 JUMP JUMPDEST SWAP3 SWAP2 POP POP JUMP JUMPDEST PUSH0 DUP1 REVERT JUMPDEST PUSH0 DUP1 REVERT JUMPDEST PUSH0 DUP1 REVERT JUMPDEST PUSH0 DUP1 DUP4 PUSH1 0x1F DUP5 ADD SLT PUSH2 0x2B2 JUMPI PUSH2 0x2B1 PUSH2 0x291 JUMP JUMPDEST JUMPDEST DUP3 CALLDATALOAD SWAP1 POP PUSH8 0xFFFFFFFFFFFFFFFF DUP2 GT ISZERO PUSH2 0x2CF JUMPI PUSH2 0x2CE PUSH2 0x295 JUMP JUMPDEST JUMPDEST PUSH1 0x20 DUP4 ADD SWAP2 POP DUP4 PUSH1 0x1 DUP3 MUL DUP4 ADD GT ISZERO PUSH2 0x2EB JUMPI PUSH2 0x2EA PUSH2 0x299 JUMP JUMPDEST JUMPDEST SWAP3 POP SWAP3 SWAP1 POP JUMP JUMPDEST PUSH0 DUP1 PUSH0 PUSH1 0x40 DUP5 DUP7 SUB SLT ISZERO PUSH2 0x309 JUMPI PUSH2 0x308 PUSH2 0x25F JUMP JUMPDEST JUMPDEST PUSH0 PUSH2 0x316 DUP7 DUP3 DUP8 ADD PUSH2 0x27D JUMP JUMPDEST SWAP4 POP POP PUSH1 0x20 DUP5 ADD CALLDATALOAD PUSH8 0xFFFFFFFFFFFFFFFF DUP2 GT ISZERO PUSH2 0x337 JUMPI PUSH2 0x336 PUSH2 0x263 JUMP JUMPDEST JUMPDEST PUSH2 0x343 DUP7 DUP3 DUP8 ADD PUSH2 0x29D JUMP JUMPDEST SWAP3 POP SWAP3 POP POP SWAP3 POP SWAP3 POP SWAP3 JUMP JUMPDEST PUSH32 0x4E487B7100000000000000000000000000000000000000000000000000000000 PUSH0 MSTORE PUSH1 0x22 PUSH1 0x4 MSTORE PUSH1 0x24 PUSH0 REVERT JUMPDEST PUSH0 PUSH1 0x2 DUP3 DIV SWAP1 POP PUSH1 0x1 DUP3 AND DUP1 PUSH2 0x393 JUMPI PUSH1 0x7F DUP3 AND SWAP2 POP JUMPDEST PUSH1 0x20 DUP3 LT DUP2 SUB PUSH2 0x3A6 JUMPI PUSH2 0x3A5 PUSH2 0x34F JUMP JUMPDEST JUMPDEST POP SWAP2 SWAP1 POP JUMP JUMPDEST PUSH0 DUP3 SWAP1 POP SWAP3 SWAP2 POP POP JUMP JUMPDEST PUSH32 0x4E487B7100000000000000000000000000000000000000000000000000000000 PUSH0 MSTORE PUSH1 0x41 PUSH1 0x4 MSTORE PUSH1 0x24 PUSH0 REVERT JUMPDEST PUSH0 DUP2 SWAP1 POP DUP2 PUSH0 MSTORE PUSH1 0x20 PUSH0 KECCAK256 SWAP1 POP SWAP2 SWAP1 POP JUMP JUMPDEST PUSH0 PUSH1 0x20 PUSH1 0x1F DUP4 ADD DIV SWAP1 POP SWAP2 SWAP1 POP JUMP JUMPDEST PUSH0 DUP3 DUP3 SHL SWAP1 POP SWAP3 SWAP2 POP POP JUMP JUMPDEST PUSH0 PUSH1 0x8 DUP4 MUL PUSH2 0x43F PUSH32 0xFFFFFFFFFFFFFFFFFFFFFFFFFFFFFFFFFFFFFFFFFFFFFFFFFFFFFFFFFFFFFFFF DUP3 PUSH2 0x404 JUMP JUMPDEST PUSH2 0x449 DUP7 DUP4 PUSH2 0x404 JUMP JUMPDEST SWAP6 POP DUP1 NOT DUP5 AND SWAP4 POP DUP1 DUP7 AND DUP5 OR SWAP3 POP POP POP SWAP4 SWAP3 POP POP POP JUMP JUMPDEST PUSH0 DUP2 SWAP1 POP SWAP2 SWAP1 POP JUMP JUMPDEST PUSH0 DUP2 SWAP1 POP SWAP2 SWAP1 POP JUMP JUMPDEST PUSH0 PUSH2 0x48D PUSH2 0x488 PUSH2 0x483 DUP5 PUSH2 0x461 JUMP JUMPDEST PUSH2 0x46A JUMP JUMPDEST PUSH2 0x461 JUMP JUMPDEST SWAP1 POP SWAP2 SWAP1 POP JUMP JUMPDEST PUSH0 DUP2 SWAP1 POP SWAP2 SWAP1 POP JUMP JUMPDEST PUSH2 0x4A6 DUP4 PUSH2 0x473 JUMP JUMPDEST PUSH2 0x4BA PUSH2 0x4B2 DUP3 PUSH2 0x494 JUMP JUMPDEST DUP5 DUP5 SLOAD PUSH2 0x410 JUMP JUMPDEST DUP3 SSTORE POP POP POP POP JUMP JUMPDEST PUSH0 SWAP1 JUMP JUMPDEST PUSH2 0x4CE PUSH2 0x4C2 JUMP JUMPDEST PUSH2 0x4D9 DUP2 DUP5 DUP5 PUSH2 0x49D JUMP JUMPDEST POP POP POP JUMP JUMPDEST JUMPDEST DUP2 DUP2 LT ISZERO PUSH2 0x4FC JUMPI PUSH2 0x4F1 PUSH0 DUP3 PUSH2 0x4C6 JUMP JUMPDEST PUSH1 0x1 DUP2 ADD SWAP1 POP PUSH2 0x4DF JUMP JUMPDEST POP POP JUMP JUMPDEST PUSH1 0x1F DUP3 GT ISZERO PUSH2 0x541 JUMPI PUSH2 0x512 DUP2 PUSH2 0x3E3 JUMP JUMPDEST PUSH2 0x51B DUP5 PUSH2 0x3F5 JUMP JUMPDEST DUP2 ADD PUSH1 0x20 DUP6 LT ISZERO PUSH2 0x52A JUMPI DUP2 SWAP1 POP JUMPDEST PUSH2 0x53E PUSH2 0x536 DUP6 PUSH2 0x3F5 JUMP JUMPDEST DUP4 ADD DUP3 PUSH2 0x4DE JUMP JUMPDEST POP POP JUMPDEST POP POP POP JUMP JUMPDEST PUSH0 DUP3 DUP3 SHR SWAP1 POP SWAP3 SWAP2 POP POP JUMP JUMPDEST PUSH0 PUSH2 0x561 PUSH0 NOT DUP5 PUSH1 0x8 MUL PUSH2 0x546 JUMP JUMPDEST NOT DUP1 DUP4 AND SWAP2 POP POP SWAP3 SWAP2 POP POP JUMP JUMPDEST PUSH0 PUSH2 0x579 DUP4 DUP4 PUSH2 0x552 JUMP JUMPDEST SWAP2 POP DUP3 PUSH1 0x2 MUL DUP3 OR SWAP1 POP SWAP3 SWAP2 POP POP JUMP JUMPDEST PUSH2 0x593 DUP4 DUP4 PUSH2 0x3AC JUMP JUMPDEST PUSH8 0xFFFFFFFFFFFFFFFF DUP2 GT ISZERO PUSH2 0x5AC JUMPI PUSH2 0x5AB PUSH2 0x3B6 JUMP JUMPDEST JUMPDEST PUSH2 0x5B6 DUP3 SLOAD PUSH2 0x37C JUMP JUMPDEST PUSH2 0x5C1 DUP3 DUP3 DUP6 PUSH2 0x500 JUMP JUMPDEST PUSH0 PUSH1 0x1F DUP4 GT PUSH1 0x1 DUP2 EQ PUSH2 0x5EE JUMPI PUSH0 DUP5 ISZERO PUSH2 0x5DC JUMPI DUP3 DUP8 ADD CALLDATALOAD SWAP1 POP JUMPDEST PUSH2 0x5E6 DUP6 DUP3 PUSH2 0x56E JUMP JUMPDEST DUP7 SSTORE POP PUSH2 0x64D JUMP JUMPDEST PUSH1 0x1F NOT DUP5 AND PUSH2 0x5FC DUP7 PUSH2 0x3E3 JUMP JUMPDEST PUSH0 JUMPDEST DUP3 DUP2 LT ISZERO PUSH2 0x623 JUMPI DUP5 DUP10 ADD CALLDATALOAD DUP3 SSTORE PUSH1 0x1 DUP3 ADD SWAP2 POP PUSH1 0x20 DUP6 ADD SWAP5 POP PUSH1 0x20 DUP2 ADD SWAP1 POP PUSH2 0x5FE JUMP JUMPDEST DUP7 DUP4 LT ISZERO PUSH2 0x640 JUMPI DUP5 DUP10 ADD CALLDATALOAD PUSH2 0x63C PUSH1 0x1F DUP10 AND DUP3 PUSH2 0x552 JUMP JUMPDEST DUP4 SSTORE POP JUMPDEST PUSH1 0x1 PUSH1 0x2 DUP9 MUL ADD DUP9 SSTORE POP POP POP JUMPDEST POP POP POP POP POP POP POP JUMP INVALID LOG2 PUSH5 0x6970667358 0x22 SLT KECCAK256 0x25 0xBF EXTCODECOPY CALLVALUE PUSH11 0x619B3E06015558B3FCFD82 PUSH5 0xA3164C4953 0xBF LOG2 PUSH3 0x2E5FE5 0xC5 BLOBBASEFEE PUSH10 0x5C64736F6C634300081A STOP CALLER "
				},
				"gasEstimates": {
					"creation": {
						"codeDepositCost": "335200",
						"executionCost": "372",
						"totalCost": "335572"
					},
					"external": {
						"c1()": "infinite",
						"init(address,string)": "infinite"
					}
				},
				"methodIdentifiers": {
					"c1()": "5f57697c",
					"init(address,string)": "f321b305"
				}
			},
			"storageLayout": {
				"storage": [
					{
						"astId": 9,
						"contract": "contracts/customer_new.sol:myContract",
						"label": "c1",
						"offset": 0,
						"slot": "0",
						"type": "t_struct(customer)6_storage"
					}
				],
				"types": {
					"t_address": {
						"encoding": "inplace",
						"label": "address",
						"numberOfBytes": "20"
					},
					"t_string_storage": {
						"encoding": "bytes",
						"label": "string",
						"numberOfBytes": "32"
					},
					"t_struct(customer)6_storage": {
						"encoding": "inplace",
						"label": "struct myContract.customer",
						"members": [
							{
								"astId": 3,
								"contract": "contracts/customer_new.sol:myContract",
								"label": "adr",
								"offset": 0,
								"slot": "0",
								"type": "t_address"
							},
							{
								"astId": 5,
								"contract": "contracts/customer_new.sol:myContract",
								"label": "name",
								"offset": 0,
								"slot": "1",
								"type": "t_string_storage"
							}
						],
						"numberOfBytes": "64"
					}
				}
			},
			"userdoc": {
				"kind": "user",
				"methods": {},
				"version": 1
			}
		}
	}
}